:020000007C2C56
:10000800FF00030E8301E7000A08E8008A01700870
:10001800A5007108A4007B08A3007C08A2007D0845
:10002800A1008316BA01BB01BC01BD010B1C9A28B3
:1000380083121014061F21281E2810100F08F30021
:10004800F4017308F100F0017008DA007108DB00B0
:100058000E08F0070318F10A7008DA007108DB00CF
:100068000A30F4000030F5004C240330F200700828
:100078008316BA007108BB00720803194828BA0D24
:10008800BB0D3A10FF3E41280030BC00BD003A309D
:10009800F400F501F601F7013A08F0003B08F10019
:1000A8003C08F2003D08F300D4227008E000710813
:1000B800E1009430F400F501F601F70183163A08DF
:1000C800F0003B08F1003C08F2003D08F300D422A0
:1000D8007008DE007108DF0000306102031D762819
:1000E8001E30600203188E2828082904031D822860
:1000F800260827040319822869248D28280829043A
:10010800031D8D2826082704031D8D28A521A80175
:10011800A90193280130A8000030A9006721E00157
:10012800E101DE01DF01DA01DB010B108312DC0AD9
:100138000319DD0A2508F0002408F1002308FB0054
:100148002208FC002108FD0068088A00670E830069
:06015800FF0E7F0E0900FE
:06015E0000000000080093
:100164000F3083120313FC004730FD00FD0BB82849
:0A017400FC0BB82800000000080092
:0E017E00213083120313FD00FD0BC32808007F
:10018C0083120313EE1BCC288611CD2886156E1B0B
:10019C00D1280611D2280615EE1AD6288610D72893
:1001AC0086146E1ADB280610DC2806146518E02865
:1001BC000616E12806128616AF208612EE19E828DC
:1001CC008611E92886156E19ED280611EE280615FC
:1001DC00EE18F2288610F32886146E18F7280610ED
:1001EC00F82806146518FC280616FD280612861633
:1001FC00AF208612651C0429B2200529BF200800F7
:10020C008312031365106D08EE00C62065140800F8
:0E021C000030831203138C1A0130F00008002A
:10022A00831203131A08F100981C1D2918121816B4
:06023A007108F00008004D
:100240003229803083120313E9004529C030E900C8
:1002500045299430E9004529D430E900452980300A
:10026000E9004529831203136908013A031921297A
:100270006908023A031926296908033A031929294A
:100280006908043A03192C292F296A03F000690828
:10029000F0077008E9007008EE00C6206510EC0158
:1002A0006C086B078400000803195E296C086B0753
:1002B00084000008ED000621EC0A502965140800AE
:0E02C0008312031363088A006208820008009C
:0E02CE00831203138714071587130713080004
:1002DC008312031387140711871207121530FB00C2
:1002EC004B30FC00BE30FD00FD0B7A29FC0B7A294B
:1002FC00FB0B7A29000087100711871307130800DE
:10030C008312031387100715871207121530FB0091
:10031C004B30FC00BE30FD00FD0B9229FC0B9229EA
:10032C00FB0B922900008710071187130713080095
:0E033C00831203138710071187160716080097
:0E034A0083120313871007118713071308008F
:10035800831203138F018E01061BBE2905100000AE
:1003680000000000000005140630FD00FD0BBA294E
:0603780000000510080062
:10037E000E2170080319C62915217008E400080023
:10038E00203083120313E4000130A6000030A700D2
:10039E000130EE00C6200230E9000630EA002A30B5
:1003AE00EB0020218714071587120712BF2164085E
:1003BE00653A0319ED29AC21BF216408653A031D86
:1003CE00EC298710071187120712DE29A521A60135
:0403DE00A70108006B
:1003E200831603139816903083129800831687178A
:1003F200071383128C1E002A1A08F000FA2908003B
:1004020020308312031390008B170B178B150B10E0
:0604120083161617080016
:10041800831603138612061206108610061186111B
:100428008312861206128611061186100610B22053
:10043800B220B220861406148616AF208612B22087
:100448008616AF208612B2208616AF208612B220FA
:1004580006108616AF208612B2208616AF208612A6
:10046800861086158616AF208612B22086110614CD
:100478008616AF20861206108616AF208612B22086
:100488008616AF20861206148616AF208612B22072
:1004980006108616AF2086128615061586140614D1
:0C04A8008616AF208612B22065140800F2
:1004B400203083120313E400BF21A601A7016408BE
:1004C400653A0319AD2AAC21BF216408753A031DAE
:1004D400782A280829040319782A0230E90006300A
:1004E400EA005330EB0020216721AC2A6408643A07
:1004F400031D892A280829040319892A0230E900DE
:100504000630EA004D30EB0020219E21AC2A64081D
:100514006C3A031D9B2A2808290403199B2A0230DC
:10052400E9000630EA004D30EB00202186216721E6
:10053400AC2A6408723A031DAC2A2808290403195A
:10054400AC2A0230E9000630EA004D30EB002021ED
:100554006E216721612AA5210130EE00C6200230F8
:10056400E9000630EA00A030EB0020210230FB0055
:100574000430FC00BA30FD00FD0BBE2AFC0BBE2A81
:0C058400FB0BBE2A00002030E400080041
:1005900060218A110A128000840AE20A0319E30A20
:0805A000F003031DC82A080046
:1005A80083120313FB01FA01F901F801A001730D8D
:1005B800F80D7408F8027508031C750FF90276081F
:1005C800031C760FFA027708031C770FFB02000161
:1005D800031C0130A002F30D0730FC00730DF80D69
:1005E800F90DFA0DFB0DA00D7408731C0D2BF80204
:1005F8007508031C750FF9027608031C760FFA02BA
:100608007708031C770FFB020001031C0130A002CE
:100618001E2BF80775080318750FF90776080318D5
:10062800760FFA0777080318770FFB0700010318FE
:100638000130A007F30DFC0BF22A720DF80DF90D2D
:10064800FA0DFB0DA00D7408731C3C2BF8027508FD
:10065800031C750FF9027608031C760FFA02770857
:10066800031C770FFB020001031C0130A0024D2B75
:10067800F80775080318750FF90776080318760F39
:10068800FA0777080318770FFB07000103180130F2
:10069800A007F20D0730FC00720DF80DF90DFA0DE8
:1006A800FB0DA00D7408721C6B2BF8027508031C57
:1006B800750FF9027608031C760FFA027708031CF7
:1006C800770FFB020001031C0130A0027C2BF80706
:1006D80075080318750FF90776080318760FFA07D7
:1006E80077080318770FFB07000103180130A007EC
:1006F800F20DFC0B502B710DF80DF90DFA0DFB0DD9
:10070800A00D7408721C9A2BF8027508031C750F4B
:10071800F9027608031C760FFA027708031C770F94
:10072800FB020001031C0130A002AB2BF80775087F
:100738000318750FF90776080318760FFA07770874
:100748000318770FFB07000103180130A007F10D0C
:100758000730FC00710DF80DF90DFA0DFB0DA00D19
:100768007408711CC92BF8027508031C750FF9026F
:100778007608031C760FFA027708031C770FFB0232
:100788000001031C0130A002DA2BF80775080318D2
:10079800750FF90776080318760FFA077708031814
:1007A800770FFB07000103180130A007F10DFC0BC0
:1007B800AE2B700DF80DF90DFA0DFB0DA00D740898
:1007C800711CF82BF8027508031C750FF9027608DE
:1007D800031C760FFA027708031C770FFB0200014F
:1007E800031C0130A002092CF80775080318750FBF
:1007F800F90776080318760FFA0777080318770FB2
:10080800FB07000103180130A007F00D0730FC00BA
:10081800700DF80DF90DFA0DFB0DA00D7408701C84
:10082800272CF8027508031C750FF9027608031CBB
:10083800760FFA027708031C770FFB020001031CEE
:100848000130A002382CF80775080318750FF9074E
:1008580076080318760FFA0777080318770FFB074F
:10086800000103180130A007F00DFC0B0C2C7018C8
:100878004B2C7408F80775080318750FF9077608E4
:100888000318760FFA0777080318770FFB07080095
:1008980083120313F801F9011030FC00710DF80DF3
:1008A800F90D7408F8027508031C750FF90203188E
:1008B800642C7408F80775080318750FF9070310F6
:0A08C800F00DF10DFC0B522C08009E
:1008D2006E2167210B30FB002630FC005D30FD00ED
:1008E200FD0B712CFC0B712CFB0B712C000000001A
:0608F200862167210800C9
:1008F8002E258316031385014030860003178801CF
:100908008901831287138813A0308B0087308316E0
:10091800031381008030870083128701012206308B
:10092800FD00FD0B952C00000C220230E900EA01C5
:100938003530EB0020213330831699001815F1214A
:100948000230FB000430FC00BA30FD00FD0BAA2C7D
:10095800FC0BAA2CFB0BAA2C0000C721AC210E21F2
:1009680070080319D12C15217008E600AC21C82C99
:100978000230E9000630EA002A30EB002021C721C6
:10098800D12C5A22D12CD12C6608413A0319BC2CFF
:0E09980066084D3A0319C52CC72CB22CD22C80
:100A5C0026308400343083120313F000D830E200C7
:100A6C000430E300C822A03084001A30F0000C30AF
:100A7C00E2000530E300C8225A3084000830F00050
:0C0A8C002630E2000530E300C82208001C
:0409B00001340034DA
:0409B40001340034D6
:1009B8004134753474346F346D346134743469344B
:0609C80063346F340034BB
:1009CE004534733470346534723461346E34643447
:1009DE006F342034533465346C346534633463348B
:1009EE0069346F346E34203441342D344D34003438
:0C09FE004134623461346A346F340034D8
:0E0A0A00413472347234693462346134003421
:100A1800533465342034733461346C346934C334EA
:100A2800B33420346434653420346D346F34643422
:100A38006F3420346D3461346E34753461346C3401
:040A48002E34003414
:040A4C00003400343E
:040A5000003400343A
:040A54000034003436
:040A58000034003432
:04400E00F22F000786
:00000001FF
