:02000000AC2C26
:10000800FF00030E83018316C0000A08C1008A019D
:1000180070088312A5007108A4007B08A3007C085F
:10002800A2007D08A1008316C801C901CA01CB013D
:100038000B1C9C2883121014061F2328202810103C
:100048000F08F300F4017308F100F0017008D20002
:100058007108D3000E08F0070318F10A7008D200DF
:100068007108D3000A30F4000030F5007C24033016
:10007800F20070088316C8007108C90072080319D5
:100088004A28C80DC90D4810FF3E43280030CA0051
:10009800CB003A30F400F501F601F7014808F0000A
:1000A8004908F1004A08F2004B08F30004237008DD
:1000B800D6007108D7009430F400F501F601F70175
:1000C80083164808F0004908F1004A08F2004B0876
:1000D800F30004237008D4007108D50000305702DB
:1000E800031D78281E305602031890282808290472
:1000F80003198428260827040319842899248F289B
:100108002808290403198F2826082704031D8F2887
:10011800C021A801A90195280130A8000030A90034
:100128008221D601D701D401D501D201D3010B1008
:1001380083122508F0002408F1002308FB00220898
:10014800FC002108FD00831641088A00400E830048
:06015800FF0E7F0E0900FE
:06015E0000000000080093
:100164000F3083120313FC004730FD00FD0BB82849
:0A017400FC0BB82800000000080092
:0E017E00213083120313FD00FD0BC32808007F
:10018C0083160313C71BCD2883128611CF28831225
:10019C0086158316471BD52883120611D728831280
:1001AC0006158316C71ADD2883128610DF288312E2
:1001BC0086148316471AE52883120610E728831243
:1001CC0006146F18EB280616EC2806128616AF20BC
:1001DC0086128316C719F52883128611F728831205
:1001EC00861583164719FD2883120611FF288312E2
:1001FC0006158316C7180529831286100729831242
:10020C008614831647180D29831206100F298312A2
:10021C0006146F1813290616142906128616AF2019
:0E022C0086126F1C1B29B2201C29BF2008005F
:10023A00831203136F1083164608C700C6206F1473
:02024A000800AA
:0E024C000030831203138C1A0130F0000800FA
:10025A00831203131A08F100981C3529181218166C
:06026A007108F00008001D
:100270004A29803083160313C2005D29C030C200B2
:100280005D299430C2005D29D430C2005D298030E0
:10029000C2005D29831603134208013A0319392964
:1002A0004208023A03193E294208033A0319412938
:1002B0004208043A0319442947294303F00042083D
:1002C000F0077008C2007008C700C6206F108316C0
:1002D000C50145084407840000080319782945082A
:1002E000440784000008C6001D218316C50A692939
:0602F00083126F140800E8
:0E02F600831203136E088A006D088200080050
:0E0304008312031387140715871307130800CD
:100312008312031387140711871207121530FB008B
:100322004B30FC00BE30FD00FD0B9529FC0B9529DE
:10033200FB0B95290000871007118713071308008C
:100342008312031387100715871207121530FB005B
:100352004B30FC00BE30FD00FD0BAD29FC0BAD297E
:10036200FB0BAD2900008710071187130713080044
:0E037200831203138710071187160716080061
:0E038000831203138710071187130713080059
:10038E00831203138F018E01061BD929051000005D
:10039E0000000000000005140630FD00FD0BD529FD
:0603AE000000051008002C
:1003B400262170080319E1292D217008EC0008009A
:1003C400203083120313EC000130A6000030A70094
:1003D40001308316C700C62002308316C2000630DF
:1003E400C300B430C40038218714071587120712DC
:1003F400DA216C08653A0319162AC721DA216C0838
:10040400653A031D152A01308316C700C620023041
:100414008316C2000630C300A030C4003821871000
:10042400071187120712FB29C021A601A7010800A2
:100434008316031398169030831298008316871737
:10044400071383128C1E292A1A08F000232A080095
:1004540020308312031390008B170B178B150B108E
:06046400831616170800C4
:10046A0083160313861206120610861006118611C9
:10047A008312861206128611061186100610B22001
:10048A00B220B220861406148616AF208612B22035
:10049A008616AF208612B2208616AF208612B220A8
:1004AA0006108616AF208612B2208616AF20861254
:1004BA00861086158616AF208612B220861106147B
:1004CA008616AF20861206108616AF208612B22034
:1004DA008616AF20861206148616AF208612B22020
:1004EA0006108616AF20861286150615861406147F
:0C04FA008616AF208612B2206F14080096
:10050600203083120313EC00DA21A601A7016C0840
:10051600653A0319DA2AC721DA216C08753A031DF0
:10052600A22A280829040319A22A02308316C20027
:100536000630C3003030C40038218221D92A6C0825
:10054600643A031DB42A280829040319B42A023080
:100556008316C2000630C3002A30C4003821B921F0
:10056600D92A6C086C3A031DC72A280829040319DE
:10057600C72A02308316C2000630C3002A30C400E0
:100586003821A1218221D92A6C08723A031DD92A61
:10059600280829040319D92A02308316C200063016
:1005A600C3002A30C4003821892182218A2AC02129
:1005B60001308316C700C62002308316C2000630FB
:1005C600C3003730C40038210B30FB002630FC0056
:1005D6005D30FD00FD0BED2AFC0BED2AFB0BED2A31
:0A05E600000000002030EC000800C7
:1005F0007B218A110A128000840AED0A0319EE0A8F
:08060000F003031DF82A0800B5
:1006080083120313FB01FA01F901F801A001730D2C
:10061800F80D7408F8027508031C750FF9027608BE
:10062800031C760FFA027708031C770FFB02000100
:10063800031C0130A002F30D0730FC00730DF80D08
:10064800F90DFA0DFB0DA00D7408731C3D2BF80273
:100658007508031C750FF9027608031C760FFA0259
:100668007708031C770FFB020001031C0130A0026E
:100678004E2BF80775080318750FF9077608031845
:10068800760FFA0777080318770FFB07000103189E
:100698000130A007F30DFC0B222B720DF80DF90D9C
:1006A800FA0DFB0DA00D7408731C6C2BF80275086D
:1006B800031C750FF9027608031C760FFA027708F7
:1006C800031C770FFB020001031C0130A0027D2BE5
:1006D800F80775080318750FF90776080318760FD9
:1006E800FA0777080318770FFB0700010318013092
:1006F800A007F20D0730FC00720DF80DF90DFA0D88
:10070800FB0DA00D7408721C9B2BF8027508031CC6
:10071800750FF9027608031C760FFA027708031C96
:10072800770FFB020001031C0130A002AC2BF80775
:1007380075080318750FF90776080318760FFA0776
:1007480077080318770FFB07000103180130A0078B
:10075800F20DFC0B802B710DF80DF90DFA0DFB0D48
:10076800A00D7408721CCA2BF8027508031C750FBB
:10077800F9027608031C760FFA027708031C770F34
:10078800FB020001031C0130A002DB2BF8077508EF
:100798000318750FF90776080318760FFA07770814
:1007A8000318770FFB07000103180130A007F10DAC
:1007B8000730FC00710DF80DF90DFA0DFB0DA00DB9
:1007C8007408711CF92BF8027508031C750FF902DF
:1007D8007608031C760FFA027708031C770FFB02D2
:1007E8000001031C0130A0020A2CF8077508031841
:1007F800750FF90776080318760FFA0777080318B4
:10080800770FFB07000103180130A007F10DFC0B5F
:10081800DE2B700DF80DF90DFA0DFB0DA00D740807
:10082800711C282CF8027508031C750FF90276084C
:10083800031C760FFA027708031C770FFB020001EE
:10084800031C0130A002392CF80775080318750F2E
:10085800F90776080318760FFA0777080318770F51
:10086800FB07000103180130A007F00D0730FC005A
:10087800700DF80DF90DFA0DFB0DA00D7408701C24
:10088800572CF8027508031C750FF9027608031C2B
:10089800760FFA027708031C770FFB020001031C8E
:1008A8000130A002682CF80775080318750FF907BE
:1008B80076080318760FFA0777080318770FFB07EF
:1008C800000103180130A007F00DFC0B3C2C701838
:1008D8007B2C7408F80775080318750FF907760854
:1008E8000318760FFA0777080318770FFB07080035
:1008F80083120313F801F9011030FC00710DF80D93
:10090800F90D7408F8027508031C750FF90203182D
:10091800942C7408F80775080318750FF907031065
:0A092800F00DF10DFC0B822C08000D
:10093200892182210B30FB002630FC005D30FD0056
:10094200FD0BA12CFC0BA12CFB0BA12C0000000029
:06095200A1218221080032
:100958008A25831603138501403086000317880112
:10096800890183128713881380308B0087308316A0
:100978000313810080308700831287012A22063002
:10098800FD00FD0BC52C0000352202308316C20085
:10099800C3015830C4003821333083169900181524
:1009A8001A220230FB000430FC00BA30FD00FD0BB7
:1009B800DB2CFC0BDB2CFB0BDB2C0000262170084E
:1009C80003191D2D2D2170088316BF00C721132D73
:1009D80002308316C2000630C300B430C400382188
:1009E800E22120308316BF000130C700C620023044
:1009F8008316C200C3015830C40038211D2D83223C
:100A080020308316BF000130C700C620023083168D
:100A1800C200C3015830C40038211D2D1D2D831676
:100A28003F08413A0319EC2C3F084D3A0319032DAE
:060A3800122DE22C1E2D20
:100B140026308400463083120313F0002430ED00A5
:100B24000530EE00F822A03084001F30F0006A3057
:0A0B3400ED000530EE00F822080085
:040A48000134003441
:040A4C00013400343D
:0C0A50004134623461346A346F34003485
:0E0A5C004134723472346934623461340034CF
:100A6A00533465342034733461346C3469346F34EC
:100A7A0020346434653420346D346F3464346F3414
:100A8A0020346D3461346E34753461346C342E34F0
:060A9A002E342E3400345E
:040AA00000340034EA
:040AA40000340034E6
:040AA80000340034E2
:100AAC004534733470346534723461346E34643468
:100ABC006F342034533465346C34653463346334AC
:080ACC0069346F346E3400340C
:100AD4005334653420347034613472346F342034C8
:100AE40065346C3420347634653468346934633462
:080AF40075346C346F340034DA
:100AFC004134753474346F346D3461347434693406
:060B0C0063346F34003475
:04400E00F22F000786
:00000001FF
