:02000000C62A0E
:10000800FF00030E83018316AC000A08AD008A01C5
:1000180070088312A3007108A2007208A1007D086D
:10002800A0000C1C2F280C10101002308316BD00E5
:1000380001227008B1007108B2000330BD0001222E
:100048007008AE007108AF00243083128E00CF30E4
:100058008F0010142F282308F0002208F10021082F
:10006800F2002008FD0083162D088A002C0E83005C
:06007800FF0E7F0E0900DF
:10007E000F3083120313FC004730FD00FD0B4528A3
:0A008E00FC0B4528000000000800EC
:060098000000000008005A
:0E009E00213083120313FD00FD0B53280800D0
:1000AC0083160313BC1B5D28831286115F288312F1
:1000BC00861583163C1B652883120611672883124C
:1000CC0006158316BC1A6D28831286106F288312AE
:1000DC00861483163C1A752883120610772883120F
:1000EC000614831630187D28831206167F28831277
:1000FC00061286164C2086128316BC198828831289
:10010C0086118A288312861583163C19902883122F
:10011C0006119228831206158316BC189828831290
:10012C0086109A288312861483163C18A0288312F2
:10013C000610A2288312061483163018A8288312DE
:10014C000616AA288312061286164C2086128316CF
:0C015C00301CB2283F20B3284F200800C0
:100168008316031330103B08BC0056208316301446
:0201780008007D
:10017A00CF28803083160313B700E228C030B700B7
:10018A00E2289430B700E228D430B700E228803061
:10019A00B700E228831603133708013A0319BE2869
:1001AA003708023A0319C3283708033A0319C6283D
:1001BA003708043A0319C928CC283803F00037084D
:1001CA00F0077008B7007008BC005620831630107C
:1001DA00BA013A083907840000080319FC283A08CA
:1001EA00390784000008BB00B420BA0AEE2830148C
:0201FA000800FB
:1001FC000E3083120313FD00FD0B022900000800D2
:10020C0083120313FB01FA01F9018030F800F10CA1
:10021C00F00C031C1A297408F90775080318750FDC
:10022C00FA070318FB0A0310F01F22297408FA07B7
:10023C0075080318750FFB07FB0CFA0CF90CF80C7E
:10024C00031C0D297B08F3007A08F2007908F100F1
:06025C007808F000080024
:0E026200831603132A088A0029088200080068
:0E0270000030831203138C1A0130F0000800D6
:10027E0083160313861206120610861006118611B7
:10028E0083128612061286110611861006103F2062
:10029E003F203F208614061486164C2086123F20DF
:1002AE0086164C2086123F2086164C2086123F2042
:1002BE00061086164C2086123F2086164C2086127B
:1002CE008610861586164C2086123F20861106143F
:1002DE0086164C208612061086164C2086123F205B
:1002EE0086164C208612061486164C2086123F2047
:1002FE00061086164C2086128615061586140614D0
:0E030E0086164C2086123F20831630140800FD
:0C031C00831203139B011D129D120800A8
:10032800831603131208013EF000F1010318F10AC5
:100338003308F400F50106210630F2007008F400D5
:100348007108F50072080319AE29F50CF40CF513C1
:10035800FF3EA7290430F1007408F0007108031962
:10036800B929F00D7010FF3EB32983120313303002
:100378007005F3007408F0007508F100F10CF00C3A
:10038800F113F10CF00CF11370089B000F309D0570
:0603980073089D0408003B
:10039E00831603130711831212150C3097040800ED
:1003AE0083160313981690308312980083168717BE
:1003BE00071383128C1EE6291A08F000E0290800A4
:0C03CE0083120313950117129712080008
:1003DA00831603132B08653A0319002A0230B70063
:1003EA000630B8006430B900BD208312871407159F
:0803FA0087120712ED2908002B
:10040200C330831203139F05C0309F0083163D083B
:10041200F000F00D7010F00D7010700883129F0440
:1004220083169F1783121F14FE209F149F1C1B2AE2
:100432000000172A1F101E08F100F00183161E0883
:08044200F0040030F104080091
:10044A00831603132B08653A0319762A2B08753A83
:10045A00031D3D2A83125808590403193D2A023004
:10046A008316B7000630B8005A30B900BD20752A85
:10047A0083162B08643A031D502A8312580859041C
:10048A000319502A02308316B7000630B800A0308C
:10049A00B900BD20752A83162B086C3A031D632AFE
:1004AA008312580859040319632A02308316B700C5
:1004BA000630B800A030B900BD20752A83162B0873
:1004CA00723A031D752A8312580859040319752AAA
:1004DA0002308316B7000630B800A030B900BD203C
:0404EA00252A0800B7
:1004EE00831603131208013EF000F1010318F10AFE
:1004FE003308F400F50106210630F2007008F4000E
:10050E007108F50072080319912AF50CF40CF51315
:10051E00FF3E8A2A0430F1007408F00071080319B6
:10052E009C2AF00D7010FF3E962A83120313303072
:10053E007005F3007408F0007508F100F10CF00C72
:10054E00F113F10CF00CF113700895000F309705B4
:06055E0073089704080079
:1005640031218A110A128000840AA90A0319AA0AED
:08057400F003031DB22A080088
:10057C00831603138710831212150C309D04080088
:10058C0096230C3083160317880089018312871376
:10059C00881380308B000313900124308E00CF30F1
:1005AC008F001014013083168C0087018312870191
:1005BC0012149210633083169200E72112149210D9
:1005CC006330831692008E21CF21BE221030831609
:1005DC00B300772210308316B30094210630FD004F
:1005EC00FD0BF62A00003330831699001815D7211D
:1005FC000230FB000430FC00BA30FD00FD0B042B74
:10060C00FC0B042BFB0B042B00003F210230B7002A
:10061C000630B8002430B900BD2083160313023015
:10062C00B7000630B8002430B900BD20382170085E
:10063C0003193B2B4130EF00302B02308316B700EF
:10064C000630B8006430B900BD20ED213B2B2522CB
:10065C003B2B3B2B831203136F08413A0319232BBB
:0E066C006F084D3A03192D2B2F2B132B3C2B0F
:10072C00243084004B3083120313F00042308316C4
:10073C00A9000330AA00B222A030840009300313B0
:10074C00F0008D308316A9000330AA00B2220800F5
:100684004534733470346534723461346E34643494
:100694006F342034533465346C34653463346334D8
:1006A40069346F346E3420346434653420344D340A
:1006B4006F3464346F3420342834413475347434E2
:1006C4006F346D34C334A1347434693463346F3497
:1006D4002F344D3461346E34753461346C342934C0
:0806E4002E342E342E340034B4
:0406EC0001340034A1
:1006F0004134723472346934623461342E342E34AD
:040700002E3400345F
:100704004134753474346F346D3461347434693401
:0607140063346F34003471
:10071A004134623461346A346F342E342E342E34C8
:02072A00003499
:04400E00F22F000786
:00000001FF
